:020000040800F2
:10000000C006002089010008AF0C0008430C00085E
:10001000AD0C00088F0200088F0D000800000000E2
:10002000000000000000000000000000B30C000809
:100030009102000800000000B10C0008B50C000897
:10004000A3010008A3010008A3010008A301000800
:10005000A3010008A3010008A3010008A3010008F0
:10006000A3010008A3010008A3010008A3010008E0
:10007000A3010008A3010008A3010008A3010008D0
:10008000A3010008A3010008A3010008A3010008C0
:10009000A3010008A3010008A3010008A3010008B0
:1000A000A3010008A3010008A3010008A3010008A0
:1000B000A3010008A3010008A3010008A301000890
:1000C000A3010008A3010008A3010008A301000880
:1000D000A3010008A3010008A3010008A301000870
:1000E000A3010008A3010008A301000800F002F822
:1000F00000F03AF80AA090E8000C82448344AAF188
:100100000107DA4501D100F02FF8AFF2090EBAE885
:100110000F0013F0010F18BFFB1A43F0010318473B
:10012000040D0000240D0000103A24BF78C878C1E7
:10013000FAD8520724BF30C830C144BF04680C60ED
:10014000704700000023002400250026103A28BF35
:1001500078C1FBD8520728BF30C148BF0B60704739
:100160001FB51FBD10B510BD00F058F81146FFF7C0
:10017000F7FF00F01DFE00F076F803B4FFF7F2FF82
:1001800003BC00F07DF8000009488047094800479B
:10019000FEE7FEE7FEE7FEE7FEE7FEE7FEE7FEE737
:1001A000FEE7FEE704480549054A064B7047000094
:1001B000050D0008ED000008C0000020C00600206A
:1001C000C0020020C00200204FF0000200B513461C
:1001D00094469646203922BFA0E80C50A0E80C5067
:1001E000B1F12001BFF4F7AF090728BFA0E80C5018
:1001F00048BF0CC05DF804EB890028BF40F8042B11
:1002000008BF704748BF20F8022B11F0804F18BF7D
:1002100000F8012B7047704770477047754600F033
:100220002BF8AE4605006946534620F00700854688
:1002300018B020B5FFF7B6FFBDE820404FF000062C
:100240004FF000074FF000084FF0000B21F00701BE
:10025000AC46ACE8C009ACE8C009ACE8C009ACE801
:10026000C0098D46704710B50446AFF300802046A4
:10027000BDE81040FFF781BF004870475C000020D8
:1002800001491820ABBEFEE7260002007047FEE7DA
:10029000704700002DE9F84FDFF8B8910024A9F16C
:1002A000040B23460F2709F1040AABF1040EC9E041
:1002B0000125A5402A40AA427DD1674ED1F804C04D
:1002C000ACEB0608B44532D014DCBCF1030F3AD0D5
:1002D00009DCBCF1000F2AD0BCF1010F1CD0BCF12D
:1002E000020F31D11DE0BCF1110F17D0BCF1120F7C
:1002F0002AD119E0B8F5881F19D006DCB8F5803F7F
:1003000015D0B8F5801F1FD111E0B8F5001F0ED031
:10031000B8F5041F18D10AE0CB6815E0CB681B1DA7
:1003200012E0CB6808330FE0CB680C330CE08B682D
:100330002BB1012B4FF0080303D0456104E00423E7
:1003400002E0056100E00023FF2A01D8064601E033
:1003500000F104064FEA840501D9A5F12005D6F87D
:10036000008007FA05FC28EA0C0803FA05F548EABC
:100370000508C6F800804D68ED0062D5374DAE69BE
:1003800046F00106AE61AD6924F0030605F00105F3
:100390000095334D06EB050CDCF80850A607360F28
:1003A00007FA06F825EA0805DFF8B880404503D1CA
:1003B0004FF0000817E044E0DFF8AC80404502D180
:1003C0004FF001080FE0DFF8A480404502D14FF064
:1003D000020808E0DFF89880404502D14FF003089A
:1003E00001E04FF0040808FA06F848EA0508CCF8DE
:1003F00008804D68D9F80060ED024D4601D51643DE
:1004000000E096432E604D68DAF80060AD02554674
:1004100001D5164300E096432E604D68DBF800607E
:10042000AD035D4601D5164300E096432E604D684E
:10043000DEF80060ED03754601D5164300E09643F3
:100440002E60641C0D682A46E5407FF431AFBDE89C
:10045000F88F000008040140000011100010024055
:100460000000014000080140000C01400010014064
:10047000001401400148806870470000040000201B
:1004800002488168027811448160704704000020AE
:10049000074810B5016841F010010160032000F029
:1004A00067F80F2000F006F800F024F8002010BDD7
:1004B0000020024070B50D4D04464FF47A71287843
:1004C000B1FBF0F00A490968B1FBF0F000F0AEFAB8
:1004D00048B9102C07D200222146501E00F028F8FF
:1004E00000206C6070BD012070BD00000400002081
:1004F000100000200C4808B5816941F001018161BC
:10050000816901F001010091C16941F08051C1612F
:10051000C06900F0805000900448416821F0E0611B
:1005200041F00071416008BD001002400000014030
:10053000F0B40E4B1B680C46C3F30223C3F107054E
:10054000042D00D90425191D072901D2002300E03C
:10055000DB1E012606FA05F1491E214099409E4006
:10056000761E16403143F0BC00F012BC0CED00E0EA
:10057000064900F0070208684FF6FF03184040EAFA
:100580000220034A10430860704700000CED00E0B1
:100590000000FA052DE9F0470F46050061D0434EF3
:1005A000306800F00700B84209D2306820F0070038
:1005B00038433060306800F00700B84251D12868F5
:1005C0003B4C810712D5400703D5606840F4E060DA
:1005D00060602878000703D5606840F46050606070
:1005E0006068A96820F0F000084360602878C007C0
:1005F00028D06868012810D02168022810D0890707
:1006000000292EDA616821F0030101436160FFF7E0
:1006100031FF804641F288390DE021688903EFE718
:100620008901EDE7FFF726FFA0EB0801494502D954
:100630000320BDE8F0876068696800F00C00B0EB4B
:10064000810FEFD1306800F00700B8420BD9306855
:1006500020F0070038433060306800F00700B842EF
:1006600001D00120E5E72878400705D56068E968F2
:1006700020F4E060084360602878000706D56068D1
:10068000296920F4605040EAC100606000F018F869
:100690006168084AC1F30311515CC840064908600B
:1006A00006480068FFF706FF0020C2E7002002406E
:1006B00000100240120E0008100000200800002068
:1006C0000E4A51680E4801F00C03042B11D0082B80
:1006D0000FD10C48C1F38343C903C05C0AD55168EC
:1006E000084AC1F34041921E515C054A5043B0FB99
:1006F000F1F0704704494843704700000010024081
:1007000000127A00020E000800093D002DE9F84FA2
:10071000040070D02078C04DC00749D06868C0F38D
:100720008100012807D06868C0F38100022809D140
:100730006868C00306D52868800339D5606800283A
:10074000E7D035E06068B0F5803F0BD010B1B0F570
:10075000A02F11D0286820F480302860286820F469
:10076000802002E0286840F480302860606890B102
:10077000FFF780FE06460AE0286840F480202860E3
:10078000F0E700BFFFF776FE801B642873D8286867
:100790008003F7D50CE0FFF76DFE064605E000BFCD
:1007A000FFF768FE801B6428F0D828688003F7D420
:1007B00020789A4E80074FF001094FF0000839D594
:1007C000686810F00C0F07D06868C0F38100022839
:1007D00009D16868C00306D42868800714D5206949
:1007E000012808D110E02069B0B1C6F80090FFF7E9
:1007F00041FE074605E00AE1FFF73CFEC01B022868
:10080000C4D828688007F7D52868616920F0F80007
:1008100040EAC10028600DE0C6F80080FFF72AFE1C
:10082000074604E0FFF726FEC01B022823D82868ED
:100830008007F7D4207800072CD57948A169D9B171
:10084000C0F80090FFF716FE074604E0FFF712FE1F
:10085000C01B02280FD8686A8007F7D571484FF48B
:10086000FA510068B0FBF1F0009000BF0098411E03
:100870000091FAD20EE080E0C0F80080FFF7FAFDA8
:10088000074604E0FFF7F6FDC01B022875D8686A2A
:100890008007F7D42078400760D5E8690027C000BA
:1008A00008D4E86940F08050E861E869012700F069
:1008B000805000905C480168C90513D401688346E4
:1008C00041F480710160FFF7D5FD824606E000BF6C
:1008D000FFF7D0FDA0EB0A0064284ED8DBF800003B
:1008E000C005F5D5E06801280AD008B1052813D065
:1008F000286A20F001002862286A20F0040002E043
:10090000286A40F001002862E06841F2883B98B113
:10091000FFF7B0FD82460BE0286A40F00400286231
:10092000EEE700BFFFF7A6FDA0EB0A0159455AD834
:10093000286A8007F6D50CE0FFF79CFD824605E0AB
:10094000FFF798FDA0EB0A0159454CD8286A8007AB
:10095000F6D41FB1E86920F08050E861E06988B3FF
:100960006968C1F38101022944D00228C6F8608079
:1009700004D0FFF77FFD044638E034E0FFF77AFD4E
:10098000074604E0FFF776FDC01B02282BD8286835
:100990008001F7D4206AB0F5803F05D16868A1686E
:1009A00020F4003008436860D4E90801084369680E
:1009B00021F4741108436860C6F86090FFF75AFD8F
:1009C000044606E025E000BFFFF754FD001B0228A7
:1009D00009D828688001F7D51BE000BFFFF74AFD62
:1009E000001B022802D90320BDE8F88F2868800187
:1009F000F4D40EE00128F7D06868226A00F4803150
:100A0000914204D1616A00F47010884201D0012043
:100A1000EAE70020E8E70000001002400000424240
:100A200080044242100000200070004010B5401EBB
:100A3000B0F1807F01D3012010BD4FF0E024606150
:100A40000F21601700F0A4F90020A06107202061A9
:100A5000002010BD70B590F83C20012A26D001245A
:100A600080F83C40022280F83D2003685A689D6867
:100A700022F070060A6832435A600D4B02689A42AF
:100A800008D0B2F1804F05D00A4B9A4202D00A4BEF
:100A90009A4204D1496825F080031943916080F897
:100AA0003D40002180F83C10084670BD022070BD1A
:100AB000002C014000040040000800402DE9F041F6
:100AC0000D46040003D094F83D0018B108E0012061
:100AD000BDE8F081002084F83C00204600F040F89A
:100AE000022084F83D002068816844F207029143A7
:100AF0008160211D206800F007F9226890689169E3
:100B0000166A2B68AF69034340F20330814341EA20
:100B10000721A868EF6908434FF6FC418843E9685C
:100B200040EA0720014328692F6A000140EA0730A4
:100B3000084369686D6926F0220646EA05152943CF
:100B400093602268906154F8460B0162012004F81A
:100B50001F09E0752076E0762077A0750020B7E7C2
:100B600000B585B0002100910191029103910068C8
:100B7000B0F1804F18D10D48C16941F00101C16148
:100B8000C16901F001010491816941F004018161B1
:100B90008069694600F00400049003200090012061
:100BA00002900348FFF776FB05B000BD001002403D
:100BB0000008014070B590F83E60044690F83F5040
:100BC00090F8423090F84320022021B104290ED041
:100BD000012E1BD114E0012E18D1012B16D184F85F
:100BE0003E0084F8420001220021206820E0012D0F
:100BF0000CD1012A0AD184F83F0084F8430014E0A4
:100C0000012D03D1012B01D1012A01D0012070BD9A
:100C100084F83E0084F83F0084F8420084F84300E2
:100C200001220021206800F0A5F80122042120689B
:100C300000F0A0F82068016841F001010160002087
:100C400070BDFEE710B58CB024216846FFF7BCFAF2
:100C50000024154809944FF080410A94C0E900141B
:100C60004FF6FF71C0E90241046184610320CDE9C0
:100C700000040120CDE902040494CDE90540079465
:100C8000694609480894FFF719FF08B172B6FEE7F4
:100C9000099409A904480A94FFF7DCFE002801D052
:100CA00072B6FEE70CB010BD14000020FEE7FEE7B0
:100CB00070477047FFF7E4BB30B58FB02821684616
:100CC000FFF782FA14210AA8FFF77EFA012528040B
:100CD000CDE90050002407946846FFF717FD08B1DE
:100CE00072B6FEE70F200A90CDE90B540D94002157
:100CF0000AA80E94FFF74EFC002801D072B6FEE75A
:100D00000FB030BD70470000F0B50268164B174CAD
:100D1000174D4FF08047984205D0B84203D0A0420B
:100D200001D0A84203D122F070064A6832439842AB
:100D300005D0B84203D0A04201D0A84203D122F48A
:100D40004074CA6822434C6922F080022243026048
:100D50008A68C2620A688262984201D109690163A5
:100D600001214161F0BD0000002C01400004004061
:100D70000008004010B501F01F030121046A9940EA
:100D80008C430462016A9A401143016210BDFEE780
:100D90000907090E002804DB00F1E02080F80014A8
:100DA000704700F00F0000F1E02080F8141D70473C
:100DB00008B5FFF76DFBFFF77FFF0E48816941F033
:100DC00020018161816901F020010091816941F078
:100DD00004018161806900F004000090FFF732FF98
:100DE0003C210548FFF7E6FE034804490068426AD3
:100DF0000A80FCE7001002401400002000000020E0
:100E0000010202030405060708090A0B0C0D0E0F68
:100E1000101000000000000000000102030406079B
:100E200008090000440E0008000000201400000023
:100E300028010008580E000814000020AC0600002D
:100E40004401000800000000010000001000000044
:080E5000000000000024F40082
:04000005080000ED02
:00000001FF
