:020000040800F2
:10000000C81B0020C9010008212900085325000849
:100010006528000803040008134B000800000000D6
:10002000000000000000000000000000972F000802
:10003000B904000800000000952F0008992F00085F
:10004000E3010008E3010008E3010008E301000800
:10005000E3010008E3010008E3010008E3010008F0
:10006000E3010008E3010008E3010008E3010008E0
:10007000E3010008E3010008E3010008E3010008D0
:10008000E3010008E3010008E3010008E3010008C0
:100090009D4A0008E3010008E3010008E3010008AD
:1000A000E3010008E3010008E3010008E3010008A0
:1000B000E301000815300008E3010008E30100082F
:1000C000E3010008E3010008E3010008E301000880
:1000D000E3010008E3010008E301000869340008B7
:1000E000E3010008E3010008E301000800F002F862
:1000F00000F05AF80AA090E8000C82448344AAF168
:100100000107DA4501D100F04FF8AFF2090EBAE865
:100110000F0013F0010F18BFFB1A43F0010318473B
:10012000A8570000C85700000A444FF0000C10F810
:10013000013B13F0070408BF10F8014B1D1108BF65
:1001400010F8015B641E05D010F8016B641E01F805
:10015000016BF9D113F0080F1EBF10F8014BAD1C55
:100160000C1B09D16D1E58BF01F801CBFAD505E073
:1001700014F8016B01F8016B6D1EF9D59142D6D3CD
:10018000704700000023002400250026103A28BFF5
:1001900078C1FBD8520728BF30C148BF0B607047F9
:1001A0001FB51FBD10B510BD00F0F1F81146FFF7E7
:1001B000F7FF04F0BFFC00F00FF903B4FFF7F2FF04
:1001C00003BC00F017F900000948804709480047C0
:1001D000FEE7FEE7FEE7FEE7FEE7FEE7FEE7FEE7F7
:1001E000FEE7FEE704480549054A064B7047000054
:1001F00013300008ED000008C8150020C81B0020BF
:10020000C8170020C8170020032A40F2308010F0E1
:10021000030C00F0158011F8013BBCF1020F6244A1
:1002200098BF11F801CB00F8013B38BF11F8013B32
:10023000A2F1040298BF00F801CB38BF00F8013BDF
:1002400011F0030300F02580083AC0F0088051F84F
:10025000043B083A51F804CBA0E80810F5E7121D5A
:100260005CBF51F8043B40F8043BAFF30080D20779
:1002700024BF11F8013B11F801CB48BF11F8012B45
:1002800024BF00F8013B00F801CB48BF00F8012B68
:10029000704710B5203AC0F00B80B1E81850203AF2
:1002A000A0E81850B1E81850A0E81850BFF4F5AF16
:1002B0005FEA027C24BFB1E81850A0E8185044BFA0
:1002C00018C918C0BDE810405FEA827C24BF51F80D
:1002D000043B40F8043B08BF7047D20728BF31F801
:1002E000023B48BF11F8012B28BF20F8023B48BF52
:1002F00000F8012B70474FF000020429C0F0128073
:1003000010F0030C00F01B80CCF1040CBCF1020FC8
:1003100018BF00F8012BA8BF20F8022BA1EB0C019D
:1003200000F00DB85FEAC17C24BF00F8012B00F893
:10033000012B48BF00F8012B70474FF0000200B5B9
:10034000134694469646203922BFA0E80C50A0E8F8
:100350000C50B1F12001BFF4F7AF090728BFA0E8A6
:100360000C5048BF0CC05DF804EB890028BF40F872
:10037000042B08BF704748BF20F8022B11F0804FB4
:1003800018BF00F8012B70477047704770477546DB
:1003900000F02CF8AE4605006946534620F00700F1
:1003A000854618B020B5FFF71DFFBDE820404FF08F
:1003B00000064FF000074FF000084FF0000B21F04F
:1003C0000701AC46ACE8C009ACE8C009ACE8C0091C
:1003D000ACE8C0098D46704710B50446AFF3008005
:1003E0002046BDE81040FFF7E8BE00000048704717
:1003F0006415002001491820ABBEFEE7260002006C
:100400007047FEE7002070470020704710B50022BB
:100410000449054803F020F90449034803F016F99C
:10042000002010BD540C0020900300205408002030
:1004300070B50C46054601461A4803F007F91948FD
:1004400003F0E8F840211848FFF755FF22782946C5
:100450001548FFF7D9FE144801788278303901EB4E
:10046000C10303EB011102EB8102417801EB81032F
:100470000E4901EB43031A440D4B1A80C2784379AD
:100480000079303A00EB800002EBC20401EB40003F
:1004900004EB0212074903EB82021044088000209B
:1004A00070BD00009003002050030020F0FDFFFF0E
:1004B0000600002008000020704772B6FEE710B565
:1004C00090F821100022022905D00421816380F8D0
:1004D0002020012010BD01680B6823F00E030B6083
:1004E00001680B6823F001030B6090F84030C46B87
:1004F000012101FA03F3636080F8211080F82020C5
:10050000104610BD10B590F821100024022903D028
:100510000421816301243DE001680A6822F00E0293
:100520000A6001680A6822F001020A601A4A01683A
:10053000914201D1012121E0174A1432914201D1A7
:1005400010211BE0144A2832914201D1891515E08F
:10055000114A3C32914201D189140FE00E4A5032C7
:10056000914202D14FF4803108E00B4A643291424B
:1005700002D14FF4801101E04FF08071064A083A31
:100580005160012180F82110002180F82010416B7A
:1005900001B18847204610BD080002402DE9F84F00
:1005A000DFF8B8910024A9F1040B23460F2709F1C5
:1005B000040AABF1040EC9E00125A5402A40AA4275
:1005C0007DD1674ED1F804C0ACEB0608B44532D0FB
:1005D00014DCBCF1030F3AD009DCBCF1000F2AD0C7
:1005E000BCF1010F1CD0BCF1020F31D11DE0BCF1F8
:1005F000110F17D0BCF1120F2AD119E0B8F5881FDE
:1006000019D006DCB8F5803F15D0B8F5801F1FD192
:1006100011E0B8F5001F0ED0B8F5041F18D10AE09C
:10062000CB6815E0CB681B1D12E0CB6808330FE0E8
:10063000CB680C330CE08B682BB1012B4FF0080317
:1006400003D0456104E0042302E0056100E00023DB
:10065000FF2A01D8064601E000F104064FEA8405AE
:1006600001D9A5F12005D6F8008007FA05FC28EA93
:100670000C0803FA05F548EA0508C6F800804D683D
:10068000ED0062D5374DAE6946F00106AE61AD6949
:1006900024F0030605F001050095334D06EB050C2B
:1006A000DCF80850A607360F07FA06F825EA080511
:1006B000DFF8B880404503D14FF0000817E044E070
:1006C000DFF8AC80404502D14FF001080FE0DFF8C1
:1006D000A480404502D14FF0020808E0DFF898807E
:1006E000404502D14FF0030801E04FF0040808FA3A
:1006F00006F848EA0508CCF808804D68D9F800608B
:10070000ED024D4601D5164300E096432E604D683C
:10071000DAF80060AD02554601D5164300E0964375
:100720002E604D68DBF80060AD035D4601D51643D1
:1007300000E096432E604D68DEF80060ED037546DC
:1007400001D5164300E096432E60641C0D682A46CE
:10075000E5407FF431AFBDE8F88F000008040140A8
:10076000000011100010024000000140000801408C
:10077000000C014000100140001401400AB1016169
:1007800070470904FBE700000148806870470000DB
:10079000C4000020024881680278114481607047DB
:1007A000C4000020074810B5016841F01001016045
:1007B000032000F075F80F2000F006F800F024F890
:1007C000002010BD0020024070B50D4D04464FF4CE
:1007D0007A712878B1FBF0F00A490968B1FBF0F0B2
:1007E00001F00EF848B9102C07D200222146501E05
:1007F00000F036F800206C6070BD012070BD000074
:10080000C4000020D00000200C4808B5816941F0E8
:1008100001018161816901F001010091C16941F02B
:100820008051C161C06900F0805000900448416867
:1008300021F0E06141F00071416008BD001002400C
:1008400000000140002809DB00F01F020121914057
:100850004009800000F1E020C0F80011704700005E
:10086000F0B40E4B1B680C46C3F30223C3F107051B
:10087000042D00D90425191D072901D2002300E009
:10088000DB1E012606FA05F1491E214099409E40D3
:10089000761E16403143F0BC04F03CB90CED00E08C
:1008A000064900F0070208684FF6FF03184040EAC7
:1008B0000220034A10430860704700000CED00E07E
:1008C0000000FA0510B50C0607D501F0070101EB91
:1008D000810100EBC100283005E001EB810100EB54
:1008E000C10000F5B47099B232B1012202730181E6
:1008F000190C4181002010BD00220273C180F9E76C
:10090000704701EB810200EBC202D0F8EC02D26B1F
:1009100003F093B801EB810200EBC202D0F8EC02C5
:10092000D2F87C2103F0ECB870B504460B0601F058
:10093000070000EB800104EBC1014FF001024FF012
:10094000000503D581F82920283103E081F8695199
:1009500001F5B471087094F8A802012808D084F851
:10096000A822206803F02EFD84F8A852002070BD54
:10097000022070BD70B5044601F00F00626890421D
:1009800001D9012070BD0B0601F0070000EB8001CA
:1009900004EBC1014FF001024FF0000503D581F8CF
:1009A0002920283103E081F8695101F5B4718D7077
:1009B000087094F8A802012808D084F8A8222068BA
:1009C00003F09DFD84F8A852002070BD022070BD88
:1009D0002DE9F05F04685FEA424C0B788D69B4F84A
:1009E00050C04FF000064BF68F7948F2800A48F667
:1009F0008F7B48F2C00E4FF480672AD54FF0020873
:100A000008EBC308C44407EB4C07E45BC4F30904D8
:100A1000A54203D32D1B8D6101D00BE08E610668CA
:100A200036F8235005EA090585F4005545EA0A051C
:100A300026F82350520609D50D78036833F825208F
:100A400002EA0B0242EA0E0223F8252084B30A8947
:100A500029E04FF0060808EBC308C44407EB4C0735
:100A6000E45BC4F30904A54203D32D1B8D6101D0BF
:100A70000BE08E61066836F8235005EA090585F417
:100A8000005545EA0A0526F82350520609D40B788A
:100A9000056835F8232002EA0B0242EA0E0225F827
:100AA00023202CB14A8949690068234604F000F8E4
:100AB0002046BDE8F09F2DE9F05F054600680C4632
:100AC0005FEA426C16468B692278B0F850C048F64F
:100AD0008F774CF280094FF4004B4FF6FF7E4FF4B6
:100AE000806A4FF0000172D54FF0020808EBC2088F
:100AF000E0440AEB480C30F80C00C0F309008342D4
:100B000011D91B1AA3610FD0730407D52E6836F8CC
:100B100022303B4043EA090326F8223094F824208F
:100B2000012A47D052E1A161607810B1012813D0A9
:100B30001AE02868B0F85030184400EB0210B0F802
:100B40000424C2F30902A0F80424B0F8042442F4F7
:100B50000042A0F8042407E02868B0F85030184498
:100B600000EB0210A0F804146278286812B1012A80
:100B700011D018E0B0F850100844217800EB0110B3
:100B8000B0F80C14C1F30901A0F80C14B0F80C145F
:100B900041F4004105E0B0F850201044227800EB09
:100BA0000210A0F80C1421782846FFF7AAFE700462
:100BB00072D40BE1626902446261E2690244E2615B
:100BC0002369226A9A4203D31846111A04E03EE0D0
:100BD00084F824100AB110462162617811B101290C
:100BE00029D031E02968B1F850201144227801EB76
:100BF0000211B1F80424C2F30902A1F8042401F29D
:100C000004413E2807D94209C30600D1521E0B8871
:100C10004BEA822207E048B14208C30700D0521CC9
:100C20000B880EEA822213430B800DE00A8842F4FF
:100C300000420A8008E02968B1F850201144227867
:100C400001EB0211A1F8040483B22289BAE04FF04B
:100C5000060808EBC208E0440AEB480C30F80C0028
:100C6000C0F30900834211D31B1AA3610FD0730490
:100C700007D42E6836F822303B4043EA090326F8B1
:100C8000223094F82420012A51D09FE0A16160789D
:100C900018B1012814D01BE03FE02868B0F85030AC
:100CA000184400EB0210B0F80424C2F30902A0F8C3
:100CB0000424B0F8042442F40042A0F8042407E01D
:100CC0002868B0F85030184400EB0210A0F8041463
:100CD0006278286812B1012A11D018E0B0F85010DB
:100CE0000844217800EB0110B0F80C14C1F309019D
:100CF000A0F80C14B0F80C1441F4004105E0B0F871
:100D000050201044227800EB0210A0F80C14217837
:100D10002846FFF7F6FD700458D42278296831F888
:100D20002200384040EA090021F822004EE06269C2
:100D300002446261E2690244E2612369226A9A42E2
:100D400003D31846111A216204E00AB11046216249
:100D500084F824106278296812B1012A28D02FE083
:100D6000B1F850201144227801EB0211B1F80C24A3
:100D7000C2F30902A1F80C2401F20C413E2807D964
:100D80004209C30600D1521E0B884BEA822207E0BB
:100D900048B14208C30700D0521C0B880EEA8222D9
:100DA00013430B800CE00A8842F400420A8007E0FB
:100DB000B1F850201144227801EB0211A1F80C0483
:100DC000628983B26169286803F090FE22782968FD
:100DD00031F8220048F6BF73184080F0300048F226
:100DE0008003184321F822000020BDE8F09F01F0A5
:100DF000070101EB810100EBC100D0F884017047CD
:100E00002DE9F04104460F0601F0070000EB8001D8
:100E100004EBC1014FF001064FF0000503D581F846
:100E20002960283103E081F8695101F5B471022B82
:100E300008700A61CB7000D10D7194F8A8020128E6
:100E400009D084F8A862206803F06CF9284684F879
:100E5000A852BDE8F0810220FBE710B501F00704BD
:100E600004EB840100EBC101C1E95F230022C1F85A
:100E7000842181F8692181F86841006801F5B47125
:100E800003F092FB002010BD70B504460D4601F042
:100E900007006168884201D9012070BD29064FF022
:100EA00000064FF0010207D500EB800104EBC10101
:100EB00081F82920283107E005EB850104EBC10109
:100EC00081F8696101F5B4718A70087094F8A8021C
:100ED000012807D084F8A822206803F04CFB68079B
:100EE00002D006E0022070BD04F52C71206803F0EA
:100EF00004FB84F8A862002070BD10B501F007045F
:100F000004EB840100EBC101C1E90F23012281F848
:100F10004C208B6400234B6481F8292001F8284F72
:100F2000006803F041FB002010BD00001FB504461F
:100F3000006803F0B9FD010403D5204601F0F1FC7F
:100F40001FBD41050DD5206830F8441F21F4806194
:100F50000180204600F010F90021204600F027F91A
:100F60001FBD410405D5206830F8441F21F480419D
:100F700074E0810405D5206830F8441F21F4005145
:100F80006CE0C10414D5206830F8401F21F0040142
:100F90000180206830F8401F21F0080101802046C0
:100FA00000F0FDF8206830F8441F21F4805155E02E
:100FB000010540D5D4F800200020694632F82030E1
:100FC00021F81030401CC0B20828F7D332F8400F87
:100FD00040F001001080206830F8402F22F001021C
:100FE00002802068B0F844205205FBD530F8442F29
:100FF00022F4806202800020236831F8102023F858
:101000002020401CC0B20828F6D3206830F8401FCA
:1010100041F008010180206830F8441F21F400618C
:101020000180206830F8401F41F004010180204613
:1010300000F0F2F81FBD810509D5206830F8441F83
:1010400021F400710180204600F0ADF81FBDC005FD
:10105000FCD5206830F8441F21F4807101801FBD49
:101060002DE9F04186B0040004D094F8A9020025CF
:1010700020B108E0012006B0BDE8F08184F8A85254
:10108000204600F05BF8032084F8A902206803F0F2
:101090002DFA04F11001142288466846FFF7F9F88A
:1010A00094E80F0003F08CF90227D0BB00212068E0
:1010B00003F014FD002001260EE000BF00EB8001CC
:1010C00004EBC10181F8296001F8280F401CCD70A4
:1010D0000D614D61C0B28D6161688142EED8002022
:1010E00012E000BF00EB800104EBC10181F86951FF
:1010F00081F8680181F86B51C1F87851C1F87C51D1
:10110000401CC0B2C1F8805161688142EAD8142203
:1011100041466846FFF7BDF894E80F0003F0DDF99B
:1011200010B184F8A972A5E784F8245084F8A96264
:10113000206803F0D0F900209DE7000008B50068A2
:101140000B49884212D10B48C16941F40001C161C9
:10115000C069002200F40000009011461420FFF73F
:101160007FFBBDE808401420FFF76CBB08BD000002
:10117000005C00400010024070B504468068012504
:10118000022801D0FFF799F92946D4F8EC0202F0C1
:10119000A0FDD4F8EC02BDE8704002F05CBDD0F8D0
:1011A000EC0202F080BDD0F8EC0202F086BD10B572
:1011B000044690F8A80201280BD0012084F8A80268
:1011C00084F82410206803F08BFC002084F8A80227
:1011D00010BD022010BDD0F8EC2200F52C71104695
:1011E00002F083BD10B5044690F8A802012810D083
:1011F000012084F8A802206803F047FC0121204662
:10120000FFF77EFB206803F064F9002084F8A80251
:1012100010BD022010BD000010B50446D0F8EC024D
:1012200002F0A2FDA069002804D00348016841F043
:101230000601016010BD000010ED00E02DE9F8434B
:1012400005460078354CC00754D0E0690026C00040
:1012500008D4E06940F08050E061E069012600F0C8
:10126000805000902E480168C90512D4016880465C
:1012700041F480710160FFF787FA074605E000BF7F
:10128000FFF782FAC01B642823D8D8F80000C005F5
:10129000F6D5206A10F4407021D0A98801F440717D
:1012A00081421CD0206A1F49012220F440700A604C
:1012B00000220A602062C00711D0FFF765FA0746D6
:1012C00041F2883808E000BFFFF75EFAC11B4145D4
:1012D00002D90320BDE8F883206A8007F4D5206A8C
:1012E000696820F44070084320621EB1E06920F074
:1012F0008050E0612878800705D56068A96820F4EF
:101300004040084360602878C00605D56068E968F9
:1013100020F48000084360600020DBE700100240FA
:1013200000700040400442422DE9F0470F4605009E
:1013300061D0434E306800F00700B84209D23068EF
:1013400020F0070038433060306800F00700B842F2
:1013500051D128683B4C810712D5400703D56068FE
:1013600040F4E06060602878000703D5606840F4CE
:10137000605060606068A96820F0F0000843606019
:101380002878C00728D06868012810D02168022872
:1013900010D0890700292EDA616821F0030101438A
:1013A0006160FFF7F1F9804641F288390DE021686C
:1013B0008903EFE78901EDE7FFF7E6F9A0EB080104
:1013C000494502D90320BDE8F0876068696800F0EC
:1013D0000C00B0EB810FEFD1306800F00700B8428D
:1013E0000BD9306820F0070038433060306800F0D7
:1013F0000700B84201D00120E5E72878400705D56D
:101400006068E96820F4E0600843606028780007BD
:1014100006D56068296920F4605040EAC100606028
:1014200000F038F86168084AC1F30311515CC84004
:101430000649086006480068FFF7C6F90020C2E7C1
:101440000020024000100240B0580008D0000020E8
:10145000C80000200448054900684968044AC1F3EF
:101460000221515CC8407047D000002000100240AB
:10147000C05800080448054900684968044AC1F397
:10148000C221515CC8407047D000002000100240CB
:10149000C05800080E4A51680E4801F00C03042B96
:1014A00011D0082B0FD10C48C1F38343C903C05C92
:1014B0000AD55168084AC1F34041921E515C054A61
:1014C0005043B0FBF1F070470449484370470000B7
:1014D0000010024000127A00A058000800093D00E8
:1014E0002DE9F84F040070D02078C04DC00749D0D6
:1014F0006868C0F38100012807D06868C0F38100E4
:10150000022809D16868C00306D52868800339D548
:1015100060680028E7D035E06068B0F5803F0BD008
:1015200010B1B0F5A02F11D0286820F480302860C9
:10153000286820F4802002E0286840F48030286089
:10154000606890B1FFF720F906460AE0286840F489
:1015500080202860F0E700BFFFF716F9801B6428A1
:1015600073D828688003F7D50CE0FFF70DF906461D
:1015700005E000BFFFF708F9801B6428F0D8286851
:101580008003F7D420789A4E80074FF001094FF07E
:10159000000839D5686810F00C0F07D06868C0F3F0
:1015A0008100022809D16868C00306D42868800732
:1015B00014D52069012808D110E02069B0B1C6F81F
:1015C0000090FFF7E1F8074605E00AE1FFF7DCF8D5
:1015D000C01B0228C4D828688007F7D5286861692D
:1015E00020F0F80040EAC10028600DE0C6F8008055
:1015F000FFF7CAF8074604E0FFF7C6F8C01B022849
:1016000023D828688007F7D4207800072CD579489C
:10161000A169D9B1C0F80090FFF7B6F8074604E019
:10162000FFF7B2F8C01B02280FD8686A8007F7D509
:1016300071484FF4FA510068B0FBF1F0009000BF20
:101640000098411E0091FAD20EE080E0C0F80080C0
:10165000FFF79AF8074604E0FFF796F8C01B022848
:1016600075D8686A8007F7D42078400760D5E869A4
:101670000027C00008D4E86940F08050E861E869BC
:10168000012700F0805000905C480168C90513D420
:101690000168834641F480710160FFF775F8824666
:1016A00006E000BFFFF770F8A0EB0A0064284ED8F0
:1016B000DBF80000C005F5D5E06801280AD008B1C4
:1016C000052813D0286A20F001002862286A20F03B
:1016D000040002E0286A40F001002862E06841F25C
:1016E000883B98B1FFF750F882460BE0286A40F03B
:1016F00004002862EEE700BFFFF746F8A0EB0A01FE
:1017000059455AD8286A8007F6D50CE0FFF73CF80F
:10171000824605E0FFF738F8A0EB0A0159454CD89E
:10172000286A8007F6D41FB1E86920F08050E8618C
:10173000E06988B36968C1F38101022944D00228B5
:10174000C6F8608004D0FFF71FF8044638E034E0A4
:10175000FFF71AF8074604E0FFF716F8C01B022847
:101760002BD828688001F7D4206AB0F5803F05D1D6
:101770006868A16820F4003008436860D4E9080173
:101780000843696821F4741108436860C6F86090E2
:10179000FEF7FAFF044606E025E000BFFEF7F4FF7F
:1017A000001B022809D828688001F7D51BE000BF7C
:1017B000FEF7EAFF001B022802D90320BDE8F88FDC
:1017C00028688001F4D40EE00128F7D06868226A06
:1017D00000F48031914204D1616A00F470108842B3
:1017E00001D00120EAE70020E8E7000000100240F5
:1017F0000000424280044242D000002000700040BD
:1018000010B5401EB0F1807F01D3012010BD4FF014
:10181000E02460610F21601703F07CF90020A061D3
:1018200007202061002010BD7047704770B590F808
:101830003C20012A26D0012480F83C40022280F876
:101840003D2003685A689D6822F070060A6832439A
:101850005A600D4B02689A4208D0B2F1804F05D011
:101860000A4B9A4202D00A4B9A4204D1496825F0A9
:1018700080031943916080F83D40002180F83C10BE
:10188000084670BD022070BD002C014000040040DD
:101890000008004010B5040003D094F83D0010B1DA
:1018A00007E0012010BD002084F83C00204600F035
:1018B0001FF8022084F83D00211D206801F0B0FBD4
:1018C000012084F8460084F83E0084F83F0084F844
:1018D000400084F8410084F8420084F8430084F812
:1018E000440084F8450084F83D00002010BD00004D
:1018F00008B500680B49884212D10B48C16941F014
:101900000201C161C069002200F00200009011468E
:101910001D20FEF7A5FFBDE808401D20FEF792BF81
:1019200008BD0000000400400010024090F83D1087
:10193000012901D001207047022180F83D10016883
:10194000CA6842F00102CA6000680B49884208D0A8
:10195000B0F1804F05D00949884202D00849884239
:1019600004D1816801F00701062903D0016841F024
:101970000101016000207047002C0140000400407C
:101980000008004070B5044690F83C00002501288E
:1019900017D0012684F83C60022084F83D002068BE
:1019A000826822F0770222F47F4282600868502821
:1019B00038D00DDC20284FD005DC90B3102811D191
:1019C0004AE0022070BD302846D040280AD13BE0D2
:1019D00060282FD070280DD0B0F5805F03D0B0F50F
:1019E000005F12D0012584F83D60002084F83C009F
:1019F000284670BDCB68D1E90121206801F053FB76
:101A00002068816841F0770109E0CB68D1E90121C4
:101A1000206801F048FB2068816841F480418160C2
:101A2000E1E719E0CA684968206801F0F1FB50213C
:101A3000206806E0CA684968206801F0FAFB602166
:101A4000206801F03AFBCEE7CA684968206801F0D7
:101A5000DFFB40212068F4E7226801461046F0E7EA
:101A60002DE9F0410D46040003D094F83D0018B173
:101A700008E00120BDE8F081002084F83C00204609
:101A800000F040F8022084F83D002068816844F2AC
:101A9000070291438160211D206801F0C1FA22688C
:101AA00090689169166A2B68AF69034340F203306E
:101AB000814341EA0721A868EF6908434FF6FC41DA
:101AC0008843E96840EA0720014328692F6A00013A
:101AD00040EA0730084369686D6926F0220646EA45
:101AE0000515294393602268906154F8460B016202
:101AF000012004F81F09E0752076E0762077A075B4
:101B00000020B7E700B585B0002100910191029156
:101B100003911B4B02681B491B489A4215D18A69E5
:101B200042F400628A618A6902F4006204928A695E
:101B300042F004028A61896901F0040104914FF4C2
:101B4000407100910121029114E0B2F1804F14D153
:101B5000CA6942F00102CA61CA6902F00102049234
:101B60008A6942F004028A61896901F004010491E2
:101B7000032100916946FEF711FD05B000BD00008C
:101B8000002C0140001002400008014070B590F8A0
:101B90003E60044690F83F5090F8423090F8432061
:101BA000022021B104290ED0012E1BD114E0012EF8
:101BB00018D1012B16D184F83E0084F8420001228E
:101BC0000021206820E0012D0CD1012A0AD184F8DF
:101BD0003F0084F8430014E0012D03D1012B01D113
:101BE000012A01D0012070BD84F83E0084F83F0036
:101BF00084F8420084F8430001220021206801F0AB
:101C000045FA01220421206801F040FA20680168A9
:101C100041F001010160002070BD704770B50446BD
:101C2000006801694FF00005C943890715D4C168F0
:101C3000C943890711D4E91E01610120207720687A
:101C400080698007204602D0FFF7E7FF04E000F03C
:101C5000BFF8204600F064F9257720680169C94380
:101C6000490717D4C168C943490713D46FF0040169
:101C70000161022020772068806910F4407F2046AF
:101C800002D0FFF7CAFF04E000F0A2F8204600F0FF
:101C900047F9257720680169C943090716D4C16847
:101CA000C943090712D46FF00801016104202077AD
:101CB0002068C0698007204602D0FFF7AEFF04E02D
:101CC00000F086F8204600F02BF92577206801699E
:101CD000C943C90617D4C168C943C90613D46FF0F4
:101CE00010010161082020772068C06910F4407F4E
:101CF000204602D0FFF791FF04E000F069F820468B
:101D000000F00EF9257720680169C943C90708D199
:101D1000C168C943C90704D1891E0161204600F08A
:101D20004FF920680169C943090609D4C168C9434C
:101D3000090605D46FF0800101612046FFF774FDAC
:101D400020680169C943490609D4C168C9434906E5
:101D500005D46FF040010161204600F0F7F92068DA
:101D60000169C94389060BD4C168C943890607D4F0
:101D70006FF0200101612046BDE87040FFF755BDBE
:101D800070BD000000B585B0002100910191029165
:101D9000039100680B49884212D10B48816941F0D8
:101DA000080181618069694600F0080004904FF4E1
:101DB000707000900220019003900448FEF7EEFB43
:101DC00005B000BD0008004000100240000C0140BA
:101DD000704770B5044690F83C0000260D46012877
:101DE0000FD0012084F83C006AB1042A1DD0082AD3
:101DF0002FD00C2A3FD00126002084F83C0030462A
:101E000070BD022070BD206801F060F92068816912
:101E100041F0080181612068816921F0040181613C
:101E2000206881692A69114311E0206801F076F980
:101E30002068816941F4006181612068816921F431
:101E400080618161206881692A6941EA022181619A
:101E5000D2E7206801F08EF92068C16941F00801DD
:101E6000C1612068C16921F00401C1612068C169B4
:101E70002A69114311E0206801F0A8F92068C169BE
:101E800041F40061C1612068C16921F48061C161D0
:101E90002068C1692A6941EA0221C161ACE710B535
:101EA000040003D094F83D0010B107E0012010BDFC
:101EB000002084F83C00204600F01EF8022084F840
:101EC0003D00211D206801F0ABF8012084F8460098
:101ED00084F83E0084F83F0084F8400084F8410014
:101EE00084F8420084F8430084F8440084F84500F4
:101EF00084F83D00002010BD08B5006806498842FE
:101F000008D10648C16941F00401C161C06900F00F
:101F10000400009008BD00000008004000100240CE
:101F20007047000010B50446022249B104290ED0C2
:101F3000082913D094F84100012816D0012010BDC3
:101F400094F83E000128F9D184F83E200FE094F87F
:101F50003F000128F2D184F83F2008E094F84000C7
:101F60000128EBD184F8402001E084F841200122CF
:101F7000206801F08BF80F492068884203D1426C39
:101F800042F4004242642068884208D0B0F1804F99
:101F900005D00949884202D00849884204D18168A5
:101FA00001F00701062903D0016841F00101016039
:101FB000002010BD002C014000040040000800403B
:101FC0002DE9FE4F00685649884241D1554C564F85
:101FD000A06910B1012822D02CE0B4F90200400021
:101FE00003F05BF8514D3A462B4603F06DF8504E26
:101FF0000022334602F0CAFE02F0EEFD6062B4F940
:102000000400400003F049F83A462B4603F05CF820
:102010000022334602F0BAFE02F0DEFD09E020891C
:1020200002B2E08801B2684600F052FE0098606299
:102030000198A0622178002001290BD0A082E082C3
:1020400000F012FCB4F9160000F03CFCA069E0615D
:10205000BDE8FE8F374909684A6A054616B26681AF
:102060004862C6EB0610800003F017F8DFF8C8904E
:10207000DFF8C8A04A46534602F088FE02F0DEFFB1
:10208000A081304603F009F8DFF8B4803A464346B1
:1020900003F01AF84A46534602F078FE02F09CFD1F
:1020A00004F13402014620640DCA8DE80D00D4E924
:1020B0000B23606A00F096FE00B2A08200F0D4FB11
:1020C0001C4848300068416A0EB2E6814562C6EBA2
:1020D0000610800002F0E1FF4A46534602F056FE29
:1020E00002F0ACFF2082304602F0D7FF3A4643466A
:1020F00002F0EAFF4A46534602F048FE02F06CFD49
:1021000004F13402014660640DCA8DE80D000D4BE8
:102110000D4AA06A00F0D2FE00B2E08294E700000F
:1021200000040040000000206F1283C0CA21094053
:1021300000004E40E80100202B8716D9CEF713404F
:10214000CA211940F54015429BC7004070477047AF
:1021500070470000F8B5016804460868CA684B6912
:1021600010F00F0F4FF0000559D003F0010602F4F4
:102170009077374365D0C10705D0D10503D5616C91
:1021800041F001016164410705D5D90703D0616CB5
:1021900041F002016164810705D5D90703D0616C64
:1021A00041F004016164010707D502F020013143C9
:1021B00003D0616C41F008016164616C00293AD080
:1021C000800604D5900602D5204601F073F82068F9
:1021D0004069616CC0F38010090700D460B32046E9
:1021E00001F041F820684069400621D5206814308C
:1021F00050E8001F21F0400140E80012002AF5D10C
:10220000E06BA8B16D494163E06BFEF77BF90028F4
:1022100011D0E06B416B01B0BDE8F0400847830688
:102220000FD593060DD52046BDE8F84001F042B821
:102230002046FFF78DFFF8BD2046FFF789FF656454
:10224000F8BD266B2023012E7CD1C6067AD5D60692
:1022500078D508684868009048694FF00206400643
:1022600040D5E16B086840680004000CE8D0A28DFE
:102270008242E5D9E085886920282DD020680C307D
:1022800050E8001F21F4807140E80012002AF5D1C7
:102290002068143050E8001F21F0010140E80012CE
:1022A000002AF5D12068143050E8001F21F04001C9
:1022B00040E80012002AF5D184F8423025632068F6
:1022C0000C3050E8001F21F0100140E80012002AF5
:1022D000F5D1E06BFEF7F3F86663A08DE18D401A4F
:1022E00081B22AE0A08DE18D401A81B2E08D0028F4
:1022F000A6D00029A4D022680C3252E8000F20F4A6
:10230000907042E80007002FF5D12068143050E8A3
:10231000002F22F0010240E80027002FF5D184F8B9
:102320004230256320680C3050E8002F22F0100264
:1023300040E80023002BF5D166632046FFF707FF36
:10234000F8BDFFE705062BD5150629D594F8410001
:102350002128F5D1A068B0F5805F01D12069B0B126
:10236000206A411C2162216800784860E08C401E90
:102370000004000CE084E3D12068C16821F08001F2
:10238000C1602068C16841F04001C160D8E7206A9F
:102390000088C0F308004860206A801C2062E5E7DE
:1023A0004006CDD55006CBD5CA68204622F0400263
:1023B000CA6084F8413000F0CBF8C1E7573200081A
:1023C00070B5040004D094F84100002510B106E077
:1023D000012070BD84F84050204600F023F82420EE
:1023E00084F841002068C16821F40051C160204692
:1023F00000F0C2FF2068016921F49041016120686A
:10240000416921F02A0141612068C16841F400510D
:10241000C1606564202084F8410084F8420065634F
:10242000002070BD30B585B0002400940194029462
:1024300003940068184988422CD11848C16941F4B6
:102440008021C161C16901F480210491816941F059
:10245000080181618069124D00F0080004904FF47A
:102460008060009002200190032003906946284676
:10247000FEF794F8E814CDE9000469462846029472
:10248000FEF78CF8002211462720FEF7E9F92720F5
:10249000FEF7D8F905B030BD0048004000100240FA
:1024A000000C014090F84230202B01D002207047F0
:1024B00021B11AB10023036300F0BABF01207047B5
:1024C00030B400681F49884239D11F4800220A24CD
:1024D000017812386FF00903342925D008DC30293F
:1024E00025D0312916D0322916D0332921D118E030
:1024F000012337290AD038290AD0612902D06D2951
:1025000017D101E0836114E0826112E0037010E0F2
:1025100002700EE01E2101E06FF01D0141808180FC
:1025200007E04380848004E04480838001E04280AF
:10253000828030BC012204490448FFF7B3BF30BC9D
:1025400070470000004800401200002008030020EF
:102550007047FEE7F0B500230A24302537261F46D2
:1025600011E000BFB4EB107F02D905EB107C01E055
:1025700006EB107C01F813C001EB430C00015B1C5F
:102580008CF80170DBB29342ECD3F0BD2DE9F04141
:1025900086B0002424480094019402940394816935
:1025A00041F010018161816901F01001049181699C
:1025B00041F020018161816901F02001049181696C
:1025C00041F004018161816901F004010491816994
:1025D00041F0080181618069144F00F008004FF458
:1025E00000550490002229463846FEF7C7F8DFF868
:1025F0004080002278214046FEF7C0F80095022670
:1026000001250396CDE9015469463846FDF7C6FF1A
:102610007820CDE90005CDE9024669464046FDF740
:10262000BDFF06B0BDE8F08100100240001001407F
:102630000008014010B58CB024216846FDF77DFEEE
:1026400000241648099414490A94C0E900144FF66E
:10265000FF71C0E902410461446184610320CDE956
:1026600000040120CDE902040494CDE9054007945B
:1026700069460A480894FFF7F3F908B172B6FEE715
:10268000099409A905480A94FFF7D0F8002801D059
:1026900072B6FEE70CB010BD002C0140E80100202E
:1026A00010B58CB024216846FDF747FE002415487C
:1026B00009944FF080410A94C0E900144FF6FF716D
:1026C000C0E90241046184610320CDE900040120D6
:1026D000CDE902040494CDE9054007946946094810
:1026E0000894FFF7BDF908B172B6FEE7099409A98D
:1026F00004480A94FFF79AF8002801D072B6FEE762
:102700000CB010BD3002002010B586B00024174870
:102710000094019402940394049413490594016075
:1027200045F6BF51C0E901140421C0E903148461D6
:10273000FFF7B0F808B172B6FEE74FF48050009092
:1027400069460A48FFF71EF908B172B6FEE704941D
:1027500004A906480594FFF769F8002801D072B66D
:10276000FEE706B010BD0000000400407802002023
:1027700010B58AB0002407941C2168460894FDF720
:10278000DCFD2248204901600B21C0E901146421CD
:10279000C0E903148461FFF782FB08B172B6FEE75B
:1027A000079407A919480894FFF740F808B172B6D2
:1027B000FEE76020CDE90004029400226946134838
:1027C0000494FFF706FB08B172B6FEE704226946DF
:1027D0000E48FFF7FEFA08B172B6FEE70822694616
:1027E0000A48FFF7F6FA08B172B6FEE70C2269460E
:1027F0000648FFF7EEFA08B172B6FEE70348FFF7A6
:10280000C1FA0AB010BD000000080040C00200205C
:1028100010B500220F49104801F0E8F808B1FDF7A3
:102820004CFE0E490C4801F0C5FA08B1FDF745FE13
:102830000B49094800F002FF08B1FDF73EFE0648CB
:1028400001F00EFB002803D0BDE81040FDF735BEB7
:1028500010BD00006400002090030020B0010020A3
:10286000B4000020FEE7000070B5144D04460122BC
:1028700008212846FDF782FF012210212846FDF796
:102880007DFF00210E48002C02DD0268546304E045
:1028900006DA02685163C4F100010068816370BD0B
:1028A0004FF000024FF008012846FDF767FF284669
:1028B000BDE8704000221021FDF760BF0008014014
:1028C000C002002070B5144D044601222021284684
:1028D000FDF754FF012240212846FDF74FFF00215C
:1028E0000E48002C02DD0268D46304E006DA0268B8
:1028F000D163C4F100010068016470BD4FF00002B3
:102900004FF020012846FDF739FF2846BDE870400A
:1029100000224021FDF732BF00080140C002002024
:10292000FEE72DE9F84F044640F68F7B48F60F7915
:102930004FF480684FF0000AC0E1B0F8441011F085
:102940000F0539D030F8256031047ED530F82510D8
:1029500001EA0B0141F0800120F8251005EB85000C
:1029600004EBC00797F8740107F5B47700286DD021
:10297000F87802286BD03978226832F8210048F6BE
:102980008F73184048F2C003184322F821003978A9
:10299000206830F82120B0F8503052047DD5022252
:1029A00002EBC1015A1808EB4201415A8905890D11
:1029B000009173D03A89DFE0C9062DD4018801EA7D
:1029C000090141F400410180206804F12805B0F8B4
:1029D00050302978022202EBC1015A1808EB42015B
:1029E000405AC0F309006064E16B0844E0630021D1
:1029F0002046FDF786FF94F8240000289CD0A869A3
:102A0000002899D194F82400216840F08000A1F8B2
:102A10004C0084F824A051E1018804F5B4750A053E
:102A200021D5B0F850202B78062101EBC3010A44D0
:102A300008EB4201405A04F52C71C0F30903EB6125
:102A4000EA88206802F034F802E0B0E070E080E04C
:102A50002068018801EA0B0141F0800101802046D5
:102A6000FEF7B9FB2AE10904D5D5018801EA0B017B
:102A700041F0800101802068B0F850202B780621B9
:102A800001EBC3010A4408EB4201405A83059B0D48
:102A9000EB6110D0696971B101E061E05FE0EA8843
:102AA000206802F005F8E969686908446861002156
:102AB0002046FDF72FFF216808880205ABD4C0F33C
:102AC00001300328A7D0B1F850000844B0F80C1426
:102AD000C1F30901A0F80C142A6900F20C403E2A47
:102AE00009D95109D20600D1491E02884FF400438A
:102AF00043EA812109E0B2B15108D20700D0491C54
:102B000002884FF6FF7303EA81210A43028021689D
:102B100008884BF68F72104080F4405048F28002D3
:102B200010430880CAE0018841F400410180EEE7CB
:102B30002068B0F850203B78062101EBC3010A441D
:102B400008EB4201415A8905890D009118D0FA8895
:102B500012E0324639462046FDF73AFF00900FE07A
:102B6000062202EBC1015A1808EB4201415A8905BD
:102B7000890D009104D07A897969009B01F098FF52
:102B8000F86900990844F861796900980844786107
:102B9000B86918B139690098814204D9397820465A
:102BA000FDF7B8FE03E03946206801F0FDFC300671
:102BB0002FD505EB850004EBC001206830F82520F7
:102BC00002EA090242F4004220F8252091F82B0085
:102BD000283101281ED0F0056CD42068B0F85030A0
:102BE0000D78022202EBC5021A4408EB4202805A19
:102BF0008A69C0F30900824255D9121A8A6154D0F9
:102C00004A6902444A61CA691044C861206801F0F7
:102C1000CBFC53E0C1F818A0087B524608B37006FD
:102C200020D5487810B1012812D03AE02068B0F8D9
:102C3000502010440A7800EB0210B0F80424C2F3CC
:102C40000902A0F80424B0F8042442F4004206E08B
:102C50002068B0F8503018440B7800EB0310A0F84F
:102C600004241EE04B78206813B1012B11D018E02A
:102C7000B0F8502010440A7800EB0210B0F80C2491
:102C8000C2F30902A0F80C24B0F80C2442F400426C
:102C900005E0B0F8503018440B7800EB0310A0F8B2
:102CA0000C24097802E0C1F818A0E9B22046FDF72B
:102CB00028FE03E032462046FDF7FDFE2068B0F80E
:102CC000441009043FF539AE0020BDE8F88F00003C
:102CD0002DE9F74F93468846C1F1A00002F086FC2B
:102CE00002F0DAFB364F374B3A4602F0EDF901F0CD
:102CF00073FF354D0646E86C02F0CEFB01F06CFF29
:102D000001460024304602F0F3FB214602F0F0FBBE
:102D100002F0C2FB8A4606465446584602F0BDF908
:102D20003A462A4B02F0D0F98946074623463246F6
:102D300002F0C8FA01F050FF0446324653463846C6
:102D4000494601F07BFF01F047FF296A012905D0C0
:102D5000BBF1AA0F0FDD0121296212E0296D40F2BB
:102D60002622914204DA1A4C491C2046296508E0C3
:102D700000212965F0E7B8F1000F02DC15484FF09B
:102D80007F54154BA4F500051449154A9D4201D204
:102D90000C4604E004F1FF459D4200D81446A0F51E
:102DA00000059D4201D2084604E000F1FF4199422E
:102DB00000D810460099C1E90040BDE8FE8F000030
:102DC0007B14AE47E17A743F00000020E17A843F33
:102DD0009A99D93F0000C0BF9A99993D9A99193E96
:102DE0009A9919BE2DE9FF4F81B0314C1746024622
:102DF000D4E90603DDE90F65DDF838A0984202D07A
:102E00000020A0656065104602F0D4FC81460146B2
:102E1000384602F003FC0090606D02F03DFB07466F
:102E20008846504602F038FBDFF888B0224B5A46FD
:102E300002F04AF93A46434602F046F9824688468D
:102E4000484602F029FB81460F46049802F024FB15
:102E50005A46194B02F038F94A463B4602F034F91B
:102E600007468946A06D02F017FB3A464B4601F033
:102E7000E5FE5246434601F0E1FE01F0ADFE01469B
:102E8000A065009802F034FB02F094FBB04207DB2F
:102E9000301A02F0ABFB6065304605B0BDE8F08F3C
:102EA000A842FADC281A02F0A1FB60652846F4E784
:102EB000000000207B14AE47E17A743F2DE9FF4FFC
:102EC00081B0314C17460246D4E90603DDE90F65AF
:102ED000DDF838A0984202D000202066E065104658
:102EE00002F068FC81460146384602F097FB0090EC
:102EF000E06D02F0D1FA07468846504602F0CCFA5F
:102F0000DFF888B0224B5A4602F0DEF83A464346D4
:102F100002F0DAF882468846484602F0BDFA814659
:102F20000F46049802F0B8FA5A46194B02F0CCF852
:102F30004A463B4602F0C8F807468946206E02F032
:102F4000ABFA3A464B4601F079FE5246434601F051
:102F500075FE01F041FE01462066009802F0C8FAB5
:102F600002F028FBB04207DB301A02F03FFBE065BD
:102F7000304605B0BDE8F08FA842FADC281A02F00E
:102F800035FBE0652846F4E7000000207B14AE47DF
:102F9000E17A743F70477047FDF7FCBB30B593B0E2
:102FA00028216846FDF7C9F914210AA8FDF7C5F9DB
:102FB000002401200F9410941194010412948DE8C0
:102FC000130004900005CDE9081002250795684616
:102FD000FEF786FA08B172B6FEE70F20CDE90A05C2
:102FE0004FF4A060CDE90C400E9001210AA8FEF735
:102FF0009BF908B172B6FEE710200F908004129082
:103000000FA8FEF71BF9002801D072B6FEE713B037
:1030100030BD70470148FEF701BE00007802002075
:10302000F0B50268164B174C174D4FF08047984289
:1030300005D0B84203D0A04201D0A84203D122F06B
:1030400070064A683243984205D0B84203D0A04285
:1030500001D0A84203D122F44074CA6822434C69CB
:1030600022F08002224302608A68C2620A68826299
:10307000984201D10969016301214161F0BD00005D
:10308000002C0140000400400008004010B501F091
:103090001F030121046A99408C430462016A9A402B
:1030A0001143016210BD10B5846842EA032224F482
:1030B0007F440A432243826010BD826822F070027E
:1030C0000A4342F0070181607047000030B5036A8F
:1030D000026A22F0010202624268846924F07305E8
:1030E0000C682C4323F002058B682B430A4DA84241
:1030F0000BD123F00805CB6822F440722B434D69B5
:1031000023F0040315438A692A43426084614968B5
:103110004163036230BD0000002C014030B5026AFB
:10312000036A23F010030362436884690D6824F482
:10313000E64444EA05248D6822F0200242EA0512A2
:103140000B4DA8420ED1CD6822F0800242EA051252
:103150004D6923F4406343EA85038D6922F0400200
:1031600043EA85034360846149688163026230BD3C
:10317000002C014030B5036A026A22F480720262B8
:103180004268C46923F4007324F073050C682C436F
:103190008D6843EA05230C4DA8420ED1CD6823F477
:1031A000006343EA05234D6922F4405242EA0512C6
:1031B0008D6923F4806342EA05124260C461496864
:1031C000C163036230BD0000002C014030B5046AC9
:1031D000026A22F4805202624268C3690D6823F4D5
:1031E000E64343EA05238D6824F4005444EA053499
:1031F000064DA84204D14D6922F4804242EA85126C
:103200004260C36149680164046230BD002C014022
:1032100010B5036A046A24F001040462846924F08E
:10322000F00444EA021423F00A020A4384610262B1
:1032300010BD10B5036A046A24F0100404628469A6
:1032400023F0A00324F4704444EA023243EA01115B
:103250008261016210BD10B5406A0021C185C18440
:10326000FEF776FF10BD01680C3151E8002F22F403
:10327000907241E80023002BF5D10168143151E828
:10328000002F22F0010241E80023002BF5D1016B51
:10329000012909D101680C3151E8002F22F01002F8
:1032A00041E80023002BF5D1202180F842100021B5
:1032B0000163704708B590F84210222901D002201E
:1032C00008BD82684FF480539A4201D1016921B14F
:1032D000816A9A421BD04AB10AE00268816A526848
:1032E000C2F308020A80816A891C08E0026972B18F
:1032F0000268526802F07F020A70816A491C81628A
:10330000C18D491E0904090CC18503D01BE0026868
:103310005268F1E70168CA6822F02002CA600168B9
:10332000CA6822F48072CA6001684A6922F0010208
:103330004A61202180F8421000214163026B012A7A
:1033400003D0FFF7BDF8002008BD016301680C3110
:1033500051E8002F22F0100241E80023002BF5D1A4
:1033600001680A68D20602D50A6849680091818D11
:10337000FEF7EDFEE7E7000070B50446006801695E
:10338000E26821F44051114301612169A0680843BA
:10339000616908432168CA6841F20C639A43024399
:1033A000CA6020684169A26921F4407111434161FA
:1033B0001E492068884202D1FEF75CF801E0FEF762
:1033C00049F800EBC00101EB001260686421800045
:1033D000B2FBF0F3B3FBF1F36FF018067343B2FBEB
:1033E000F0F5B2FBF0F605EB8305322303EB051590
:1033F000B5FBF1F5B6FBF1F605F0F00505EB0615AA
:10340000B2FBF0F6B2FBF0F0B0FBF1F06FF0180297
:10341000504306EB800003EB0010B0FBF1F0216895
:1034200000F00F002844886070BD000000380140A3
:1034300081628285C28500214164222180F8421088
:10344000016921B10168CA6842F48072CA600168EA
:103450004A6942F001024A610068C16841F02001F6
:10346000C1600020704700000148FEF773BE0000F5
:10347000080300202DE9F041D0F8C032D0F8B8227E
:10348000CAB101EB810500EB85040026E7693FB175
:1034900003EBC5039B6BB7FBF3F503FB157323B17C
:1034A000C2F814620020BDE8F08100231A46E661EC
:1034B00000F063FCF6E70220F5E770B50546D0F8AA
:1034C000B84200F05EFBC4F80C02D5F8B80248B16F
:1034D000D5F8BC12D4F80402CA6804F50371904709
:1034E000002070BD022070BD70B504460026812109
:1034F00000F09AFA002501212046E56200F094FAD6
:1035000082212046C4F86C5100F08EFA2564D4F86C
:10351000B80248B1D4F8BC0204F52E744068804764
:10352000206800F0FAFD2560304670BD10B5D0E986
:10353000AE4159B194F80002FF2807D08B6894F887
:10354000012221469847FF2084F80002002010BD88
:103550000A21018000487047D800002043210180E3
:10356000004870472801002043210180004870472F
:10357000E400002043210180004870476C010020D6
:103580002DE9F04104460026007C4FF40077012528
:1035900090B3402302228121204600F047FB4023C4
:1035A000E56202220121204600F040FB08230322AD
:1035B00082212046C4F86C5100F038FB4FF40770AC
:1035C000256400F0ABFDC4F8B802F8B10546D4F8A4
:1035D000BC02006880470020C5F81402C5F8180234
:1035E000207CD5F8042298B140230121204600F028
:1035F00029FB3046BDE8F081FFE73B4602228121EE
:10360000204600F013FB3B46E562CAE70126F0E7DF
:103610003B46EAE710B5D0F8B81269B1027C002A3F
:10362000D1F8042205D04023012100F00BFB00203B
:1036300010BD4FF40073F7E7022010BD02460220D0
:10364000002902D00020C2F8BC127047D0F8B8029E
:10365000C0F8041200207047D0F8B802C0F8102259
:10366000C0F80812002070472DE9FC410546D0F84B
:10367000B87200208DF80000ADF804000646087806
:103680000C4610F0600121D020293BD1E288AAB17C
:103690000006607807D5D5F8BC128B683946984784
:1036A000E288394626E087F80002A07987F801020F
:1036B000E2883946284600F04FF828E0D5F8BC12D9
:1036C000607800228B682146984720E0607820B11E
:1036D0000A2809D00B2815D110E095F89C02032880
:1036E00010D1022201A905E095F89C02032809D116
:1036F00001226946284600F049F808E095F89C0246
:10370000032804D02146284600F01BF80226304644
:10371000BDE8FC8110B5D0F8B42252689047002073
:1037200010BD134610B50A46002100F08BFA0020A8
:1037300010BD134610B50A46002100F01EFB002004
:1037400010BD10B50446802100F0FCFA2046BDE80B
:103750001040002100F0F6BA10B50323C0F85C2138
:10376000C0F89432C0F8602113460A46002100F0E8
:1037700069FA002010BD10B505210023C0F894128D
:103780001A46194600F05EFA002010BD10B502235B
:10379000C261C0F89432026213460A46002100F06A
:1037A000ECFA002010BD10B504210023C0F89412DB
:1037B0001A46194600F0E1FA002010BD10B50A467D
:1037C000024903A000F0E2F8004810BD54060020B2
:1037D00043444320436F6E666967000012200880EF
:1037E000004870478400002010B50A46024903A033
:1037F00000F0CCF8004810BD54060020434443209C
:10380000496E74657266616365000000042008807B
:10381000004870478000002010B50A46024903A006
:1038200000F0B4F8004810BD5406002053544D6910
:1038300063726F656C656374726F6E6963730000A9
:1038400010B50A46024903A000F0A0F8004810BDD8
:103850005406002053544D333220566972747561FA
:103860006C20436F6D506F727400000010B51A2009
:1038700008800A480168001D0468001D00680818D7
:1038800009D008220649FEF765FE054904221031D9
:103890002046FEF75FFE0248801E10BDE8F7FF1FBE
:1038A0009A000020F8B504460020ADF800004888D2
:1038B0000D46010A082948D2DFE801F0470409173C
:1038C00047473C45D4F8B012207C0A6819E0207CB8
:1038D00002260028D4F8B40205D0C16A6846884799
:1038E000014646703EE0816AF8E7C0B206282CD255
:1038F000DFE800F0030A1014181CD4F8B002426884
:1039000005E0694690471CE0D4F8B0028268E2B155
:10391000207CF6E7D4F8B002C268F8E7D4F8B00229
:103920000269F4E7D4F8B0024269F0E7D4F8B002D3
:103930008269ECE7207C40B9D4F8B402416B684658
:10394000884701460EE0207C20B129462046FFF73B
:10395000F8FEF8BDD4F8B402016B6846884701460A
:1039600007204870BDF8000048B1EA8852B1824291
:1039700000D90246ADF800202046FFF707FFE8888F
:103980000028E6D12046FFF70EFFF8BD70B50023F2
:1039900000281ED00446002502E06D1CEDB2641C18
:1039A0002678002EF9D1022404EB45041480127805
:1039B000CA545B1C0322CA5400245B1C06E0CA5490
:1039C0005B1CDAB28C54521CD3B2401C0278002A21
:1039D000F5D170BD01004FF0000004D0012901D0E5
:1039E000022901D0022070470120704710B580B134
:1039F000D0F8B43213B10023C0F8B43209B1C0F822
:103A0000B012012180F89C12027000F0BFF8002073
:103A100010BD022010BD10B5D0F8C002FCF7AAFFFF
:103A2000BDE81040FFF7D6BF10B5D0F8C002FCF7D4
:103A30007BFFBDE81040FFF7CDBF2DE9F0411746F1
:103A4000044651B1D4F8B40242691AB194F89C0208
:103A5000032851D00220BDE8F081D4F8943200252B
:103A600004F11400022B03D0042B3AD0C3B33CE082
:103A7000D0E903639E4207D9F11AC1608AB2394680
:103A80002046FFF756FE12E08068B0FBF3F103FB1F
:103A9000110199B9984211D3D4F8981288420DD2E5
:103AA000002211462046FFF744FEC4F89852002336
:103AB0001A461946204600F0C5F816E0D4F8B402BC
:103AC000C16829B194F89C02032801D12046884797
:103AD0008021204600F036F92046FFF74CFE04E036
:103AE000FFE78021204600F02DF994F8A00201287C
:103AF00004D184F8A05201E0204690470020AAE7B4
:103B000070B51546044649B1D4F8B40282691AB1B9
:103B100094F89C02032830D0022070BDD4F894128F
:103B200004F5AA70032902D005291ED027E0D0E9A8
:103B300003218A420BD9531AC3600846834200D33B
:103B400003469AB229462046FFF7EBFD17E0D4F86A
:103B5000B402016929B194F89C02032801D12046DE
:103B600088472046FFF71FFE09E000200146C4F801
:103B70009402204600F0E6F801E02046904700203D
:103B800070BDD0F8C002FDF732B9000010B5044690
:103B90001C481D49C0F8EC42C4F8C002016008216D
:103BA00041600221816000218161C1610162FDF7F4
:103BB00057FA08B1FCF781FC0022D4F8C0021823A0
:103BC000114604F53074FCF77DFE58230022802155
:103BD0002068FCF777FEC023002281212068FCF7D3
:103BE00071FE4FF48873002201212068FCF76AFE01
:103BF0004FF48073002282212068FCF763FE0020CE
:103C000010BD000074120020005C00400A0601F0A4
:103C10007F01D0F8C00201EB810100EBC10002D5A9
:103C200090F82A00704790F86A01704710B51C465A
:103C30001346D0F8C0022246FDF7E2F8BDE8104076
:103C4000FFF7C8BE10B5D0F8C002FDF706F9BDE811
:103C50001040FFF7BFBE70B5002204464023114656
:103C6000FFF7E4FF40260125C4F8646133460022D3
:103C700080212046C4F85851FFF7D8FF6662A5613D
:103C800084F89C520020C4F894026060C4F8A40236
:103C9000D4F8B80228B1D4F8B40200214268204612
:103CA0009047002070BD90F89C12042903D190F831
:103CB0009D1280F89C120020704710B590F89C125D
:103CC000032904D1D0F8B412C96901B18847002092
:103CD00010BD01740020704710B5D0F8C002FDF788
:103CE00066FABDE81040FFF775BE70B5044600F5F2
:103CF0002A70054600F04AF80120C4F89402B4F88E
:103D0000AE02C4F8980294F8A80210F01F010AD07D
:103D100001290DD0022910D000F08001204600F0CA
:103D200011F8002070BD2946204600F09EF8F8E703
:103D30002946204600F0CAF9F3E72946204600F05C
:103D40001DF9EEE710B5D0F8C002FDF79DF8BDE80B
:103D50001040FFF73FBE10B5D0F8C002FDF742FAA1
:103D6000BDE81040FFF736BE90F89C1280F89D1217
:103D7000042180F89C120020704710B5D0F8C002D2
:103D8000FDF7BBF8BDE81040FFF724BE0A780270CB
:103D90004A7842708A78CB7802EB032242800A7913
:103DA0004B7902EB032282808A79C97902EB0121E7
:103DB000C18070470246002011B1C2F8B4127047AA
:103DC0000220704710B5D0F8B42202241AB112684C
:103DD000904700B90024204610BD000070B50E4683
:103DE0001E4D897804462970012931D894F89C0227
:103DF00002280BD003280FD031462046FFF7A1FC44
:103E000029782046BDE87040FFF784BCD9B1032073
:103E1000616084F89C0209E071B16068884212D048
:103E2000C1B22046FFF776FC297861602046FFF793
:103E3000C9FF02280CD006E0022084F89C0220462C
:103E40006160FFF767FC2046BDE87040FFF7ABBC40
:103E500031462046BDE87040FFF773BCD400002017
:103E600010B5FFF778FF002010BD2DE9F0410A786A
:103E7000002612F0600208D0202A01D0402A70D11A
:103E8000D0F8B422926890476DE04B78002201256B
:103E90000A2B66D2DFE803F0405D655765080565CB
:103EA0002C29FFF7FFFC5EE004468888D8B9C88853
:103EB000C8B94888802816D200F07F0794F89C0281
:103EC000032810D084F89E7239462046FFF704FF7D
:103ED0002046FFF768FC1FB1022084F89C0242E0F4
:103EE00084F89C523FE020463BE0FFF777FF3AE042
:103EF000CB88012B35D190F89C32012B04D0022BBA
:103F000002D0032B2DD104E08260012200F10801D0
:103F100016E00122011D13E090F89C22012A03D033
:103F2000022A01D0032A1CD1CA88022A19D1C560ED
:103F3000D0F8A41209B10321C160022200F10C01E2
:103F4000FFF724FC0FE0498801290CD1C0F8A452E6
:103F500011E090F89C32012B08D0022B06D0032BE5
:103F600004D0FFF7EEFB3046BDE8F0814988012917
:103F7000F9D1C0F8A422FFF716FCF4E72DE9F041CF
:103F80000A46044610780027097910F060030AD029
:103F9000202B01D0402B50D1D4F8B40211468368B5
:103FA000204698478FE0C0F34110012806D0507892
:103FB000D0B301282AD003283FD107E0D4F8B402B7
:103FC000114683682046BDE8F041184794F89C02EA
:103FD000022802D0032872D10AE071B380296ED082
:103FE0002046FFF7AFFE80212046FFF7ABFE6AE0D8
:103FF000508838B931B1802904D0D08810B9204612
:10400000FFF7A0FE2046FFF7CEFB5CE094F89C0291
:104010000228E2D0032852D1508898BB4806F1D03C
:104020002046FFF7F8FCEDE7FFE794F89C02002636
:10403000022803D0032842D112E040E009B18029D0
:104040003DD1080601F07F0000EB800004EB800109
:1040500001D5143101E001F5AA7102220E602AE0B7
:10406000080601F00F0000EB800004EB80000AD589
:10407000806920B301F07F0000EB800004EB800535
:1040800014350BE01FE0D0F85801C0B101F07F00FB
:1040900000EB800004EB800505F5AA7541B180298D
:1040A00006D02046FFF7B2FD10B10120286000E0E5
:1040B0002E60022229462046FFF768FB03E01146E6
:1040C0002046FFF73EFB3846BDE8F08170B5054657
:1040D00008780C4610F0600003D0202801D040285A
:1040E00016D195F89C02012803D0022801D003289C
:1040F0000ED1207901280BD8D5F8B4028268284661
:104100009047E188014306D12846FFF74CFB02E0C7
:104110002846FFF716FB002070BD70470048704727
:10412000541000202DE9F0470C78002630F8243098
:1041300048F68F121340CA78002A78D0012A7CD022
:10414000022A02D0032A75D0012648F280021343C6
:1041500020F824300D7830F8253048F68F7423404D
:104160002B43134320F825300D7B48F2C00948F655
:10417000BF734CF2800A4BF68F77EDB3CD7891F890
:1041800000C0022D30F82C507DD048F68F6805EA2B
:104190000805154320F82C50B0F8505091F800C095
:1041A000054405EB0C15B1F808C02CF0010CA5F87E
:1041B00000C4B0F8505091F800C0054405EB0C1550
:1041C000B1F80AC02CF0010CA5F808C44D78002DF8
:1041D0007ED00D7830F825C05FEA4C4C07D530F81A
:1041E00025C00CEA040C4CEA0A0C20F825C091F812
:1041F00000C030F82C5000E022E06D0606D530F803
:104200002C50254045EA090520F82C50CC780D7833
:10421000012C30F8254004EA03047CD084F020030C
:10422000134320F82530C1E001E006E002E043F44A
:1042300000738AE743F4C06387E743F4806384E74D
:104240004D784DB3B0F850500F78054405EB071585
:10425000CF8827F00107A5F800740F7830F82750B1
:104260006D0606D530F82750254045EA090520F8A7
:104270002750CC78012C07D00C7830F82410194046
:1042800081F0200104E064E00C7830F8241019403B
:10429000114320F8241090E0B0F850300D7803441A
:1042A00003EB0513CD8825F00105A3F80854B0F8F9
:1042B00050300D78034403EB0513B3F80C54C5F3E9
:1042C0000905A3F80C540D6903F20C433E2D00E0E0
:1042D00045E00BD94FEA551CED0601D1ACF1010CBC
:1042E0001D884FF4004848EA8C2C0BE035B34FEAA8
:1042F000550CED0701D00CF1010C1D884FF6FF782D
:1043000008EA8C2C45EA0C051D800D7830F8253024
:104310005B0408D500E046E030F82530234043EA4E
:104320000A0320F82530097861B130F821303B408C
:1043300083F40053134320F821303EE01D8845F4F8
:104340000045E1E70188394081F440511143018083
:1043500033E0254048F2801845EA08051AE791F84D
:1043600000C030F82C506D0406D530F82C50254094
:1043700045EA0A0520F82C5091F800C030F82C507E
:104380006D0606D530F82C50254045EA090520F881
:104390002C500D7830F825403C4084F440541443B0
:1043A00020F8254070E7144320F825400B7830F8BA
:1043B00023103940114320F823103046BDE8F08720
:1043C000002070472DE9F04391F80C804F780A786F
:1043D00048F6BF7C4BF68F7948F2800348F2C0055F
:1043E0004CF2800648F68F74B8F1000F28D0002FE9
:1043F00030F822704FEA474748D0002F05DA30F8EE
:1044000022702740374320F822700A7830F8227053
:104410007F0605D530F8227027402F4320F8227000
:104420000D7830F825202240324320F825200C78E2
:1044300030F8242002EA0C021A4320F824201AE063
:104440007FB130F82260760605D530F8226026402C
:104450002E4320F822600A7830F8221001EA0C017D
:104460000EE030F822506D0405D530F8225025407A
:10447000354320F822500A7830F8221001EA090169
:10448000194320F822100020BDE8F083002F05DA40
:1044900030F822702740374320F822700A7830F82D
:1044A0002260760605D530F8226026402E4320F89B
:1044B00022600E7830F8262022402A4320F8262059
:1044C0000C7830F8242002EA09021A4320F824204C
:1044D000C1E70020704700207047012120F8401FED
:1044E00000210180818001820846704730F8401F1A
:1044F00021F43F410180002070470020704730B513
:104500000A7BB2BB4A7848F68F7548F28004C2B184
:104510000B7830F82320520607D530F823202A40A4
:1045200048F2C0052A4320F82320CA78012A20D067
:104530000A7830F8221048F6BF73194081F0200144
:1045400014E00A7830F822305B0407D530F82230C6
:104550002B404CF280052B4320F822300A7830F8AB
:1045600022104BF68F73194081F44051214320F8FB
:104570002210002030BD10B54A780978002A48F290
:10458000800330F8212005D048F6BF74224082F025
:10459000100204E04BF68F74224082F480521A43DA
:1045A00020F82120002010BD2DE9F0470D464B7862
:1045B000097B04464FF0000948F68F7248F2800AE2
:1045C0004FF400474FF6FF78012B09D000296FD038
:1045D000E87802286DD001286CD00120BDE8F08772
:1045E000AE692869864200D9064691B1E978022968
:1045F0001ED0286A801B2862287834F820104906CB
:10460000B4F85010214401EB001073D5A0F80C64ED
:1046100016E1B3B2EA882046696900F067FAB4F897
:1046200050002978204400EB0110A0F804640DE14B
:10463000296A814277D9297834F82100104048F25C
:104640008012104324F82100286A801B28622878F1
:1046500034F820104906697871D511B101292AD0A2
:1046600030E0B4F85010214401EB0010B0F80C1405
:10467000C1F30901A0F80C1400F20C403E2E07D93A
:104680007109F20600D1491E028847EA812107E03C
:104690004EB17108F20700D0491C028808EA812156
:1046A0000A4302800EE0018841F40041018009E0E4
:1046B000F1E020E195E1B4F85020111901EB001070
:1046C000A0F80C646A89B3B22046696900F00EFA5A
:1046D0006869304468612969286A884202D9801B68
:1046E000286202E00646C5F82090687818B10128D3
:1046F0002BD032E02FE0B4F850002978204400EBB2
:104700000110B0F80414C1F30901A0F8041400F278
:1047100004403E2E08D97109F20600D1491E0288D4
:1047200047EA812108E0A1E056B17108F20700D004
:10473000491C028808EA81210A4302800DE00EE04C
:10474000018841F40041018007E0B4F85000297865
:10475000204400EB0110A0F804642A8971E011B133
:10476000012927D02DE0B4F85010214401EB0010AE
:10477000B0F80414C1F30901A0F8041400F20440D5
:104780003E2E07D97109F20600D1491E028847EA78
:10479000812107E04EB17108F20700D0491C028860
:1047A00008EA81210A4302800BE0018841F40041BC
:1047B000018006E0B4F85010214401EB0010A0F88D
:1047C00004642A89B3B22046696900F08FF96869E8
:1047D000304468612969286A884202D9801B2862AE
:1047E00002E00646C5F82090687810B1012836D05E
:1047F00026E0B4F850002978204400EB0110B0F80E
:104800000C14C1F30901A0F80C1400F20C403E2E68
:1048100007D97109F20600D1491E028847EA8121B1
:1048200007E04EB17108F20700D0491C028808EA7F
:1048300081210A43028003E0018841F400410180A4
:104840006A89B3B22046696900F050F9297834F8D2
:10485000210048F6BF72104080F030000FE1B4F83C
:1048600050100819297800EB0110CFE62A7834F8A7
:10487000220048F68F63184040EA0A0024F822001C
:10488000B4F850002A78204400EB02108BB2A0F854
:1048900004342A89D6E7A9692869814202D9091A0C
:1048A000A96102E00846C5F81890B4F850102A78BB
:1048B000214401EB0211B1F80C24C2F30902A1F862
:1048C0000C2401F20C413E287DD94209C00600D1DA
:1048D000521E088847EA82220AE0088840F4004015
:1048E00007E04208C00700D0521C088808EA82226C
:1048F00010430880BBE033BBB4F850002978204453
:1049000000EB0110B0F80414C1F30901A0F804147D
:10491000296900F204403E2907D94B09C90600D194
:104920005B1E018847EA832307E041B14B08C907B2
:1049300000D05B1C018808EA8323194302E0018848
:1049400041F400410180687810B1012828D030E09E
:10495000B4F850002978204400EB0110B0F80C1492
:10496000C1F30901A0F80C14296900F20C403E299A
:1049700007D94B09C90600D15B1E018847EA83238A
:1049800007E041B14B08C90700D05B1C018808EA69
:104990008323194302E0018841F40041018008E0CB
:1049A000B4F850100819297800EB0110298AA0F8F2
:1049B0000C14E869C0B3297834F82100430401D508
:1049C000430605D400E046E044F2400318424ED1CD
:1049D00034F82100104048F2C002104324F82100AE
:1049E00045E0A9692869814202D9091AA96102E052
:1049F0000846C5F8189013BBB4F850102A78214423
:104A000001EB0211B1F80424C2F30902A1F8042455
:104A100001F204413E2808D94209C30600D1521EC2
:104A20000B8847EA822208E021E078B14208C307F8
:104A300000D0521C0B8808EA822213430B8069784D
:104A400000293FF42EAF012909D010E00A8842F472
:104A500000420A80F3E700287FF443AF3DE7B4F853
:104A6000502011192A7801EB0211A1F80C042978C1
:104A700034F821004BF68F72104080F4405040EA29
:104A80000A0024F821000020A8E50021A0F8441025
:104A90004FF43F41A0F84010002070470148FCF758
:104AA00045BA000074120020B0F8440070470000BE
:104AB00010B500EB42005C0800F5806009D000BF33
:104AC00030F8042B01F8012B120A01F8012B641EA7
:104AD000F6D1DA0701D00088087010BD00207047B9
:104AE00011B98021A0F84C100020704710B55B1C54
:104AF00000EB42005B0800F5806009D011F8012B43
:104B000011F8014B42EA042220F8042B5B1EF5D178
:104B100010BDFEE70907090E002804DB00F1E020C4
:104B200080F80014704700F00F0000F1E02080F8DA
:104B3000141D7047FBF736FEFEF730FAFDF726FD31
:104B4000FDF778FDFDF7ACFDFDF7DEFDFDF710FE8E
:104B5000FDF75EFE1D481C490C2201604FF4165102
:104B6000416000218160C160C0E904128161C161BE
:104B7000FDF726FC08B172B6FEE71448002148385C
:104B8000FDF7D0F9114804214838FDF7CBF90F485B
:104B900008214838FDF7C6F90C480C214838FDF7C4
:104BA000C1F90A489038FCF7C1FE3C210848FCF7DF
:104BB000EDFF07483C214830FCF7E8FF012205499A
:104BC0000248FDF76FFCFEE70048004008030020A4
:104BD000E80100201200002021F00042A2F1605202
:104BE000B2F5801F01F0004328BFD2F17F6C0BD9D2
:104BF0005FEA001C43EAC20242EB507018BF7047E4
:104C000028BF20F001007047B2F5801FBCBF1846D6
:104C100070474FEA410C1CF5001F02D2084600F015
:104C2000C4BD70B500F0FAFA00000089FFF7F6BFC6
:104C30004FF00040A0F580007047000010B591EAE9
:104C4000030F48BF83F0004300F14483841A71EBE3
:104C5000030C05D2121943EB0C03001B61EB0C0192
:104C6000DFF824E14FEA1154A4EB135C1EEA430F72
:104C700018BF9EEA445F73D023EA0E03DCF1200ED6
:104C800021EA045143F4801332D322FA0CFE10EBD4
:104C90000E0023FA0CFE41EB0E01CCF1200E03FABC
:104CA0000EFE10EB0E0051F10001B1F5801FCCF1AA
:104CB000200E32D201EB045112FA0EF2BDE8104080
:104CC00058BF7047401C38BF5FEA420218BF7047A8
:104CD000002814BF20F0010041F100014FEA410318
:104CE00013F5001F38BF7047A1F1C04100F0E4BACE
:104CF000012A43EB0302ACF1200CDCF11F0E32BFA2
:104D00004FF0000E23FA0CF310EB030041EB0451BB
:104D1000B4EB115FD0D0A1EB045101F5801149082B
:104D20005FEA300001EB04510ED350F1000038BFB0
:104D300012FA0EFE08D1BDE81040C9E7401C38BF8A
:104D40005FEA4202CAD1C3E7BDE810404FEA41031F
:104D500013F5001F38BF7047A1F1C04100F0ACBA95
:104D60009EEA445F08D011EA5E0FBDE8104004BF20
:104D700001F0004100207047BDE8104070B500F020
:104D80004DFA00BF64FBBE3E0000E0FF2DE9C041CC
:104D900030B4DFF8A0C23CEA111418BF3CEA131487
:104DA00000F0EC8081EA03051CEA111444EAD57492
:104DB00018BF1CEA131500F0C780A4EB05044FF0E0
:104DC000004545EAC12145EAC32341EA505143EA7F
:104DD000525304F17F74994204F500344FEAC02025
:104DE0004FEAC22208BF904200F09C804FEA136550
:104DF0000FF24016765D4FEA134506FB05F7C7F143
:104E0000807706FB07F74FEAD737A7FB03687642A0
:104E1000C8F58038A7FB06CE38BFA8F1010807FB0C
:104E200008E64FF0000EA6FB028CE6FB03CEDCF199
:104E3000000CCEF1004E38BFAEF1010EA6FB0C58AF
:104E40004FF000074FF00005E6FB0E87A1FB08C6F8
:104E5000A0FB07CE16EB0E0645F10005E1FB07654A
:104E600015F1E04E7EBFA4F580345FEA46066D4141
:104E700016F1800745F100054FEA17274FEA06664D
:104E800047EA0567A6F1DE46B6F1805F4FEA1525D1
:104E90001FD9384624F0010C05EBC471BCF1FE6F3C
:104EA00001EB0C1102D8F0BCBDE8008124425CBFCC
:104EB00001F5801E9EEAC47F02D4F0BCBDE80081EB
:104EC000244238D4F0BCA1F1C041BDE8004100F05B
:104ED000F3B94FEAD22242EA43524FEAD323A7FB67
:104EE00002864FEAD02040EA415007FB03661EEAE3
:104EF0000E0F4FEAD12105FB026658BFA6EB005604
:104F0000B6EB00564FEA520E4EEAC37E18EB0E0E79
:104F100056EB530EBDD518EB02085E417F1C55F1D0
:104F20000005B6E74FF480154FF000074FF000067C
:104F30004FF00008ADE7F0BC4FF0000001F1C041B8
:104F400001F00041BDE8008111EA0C1F0CEA1315C5
:104F500000D00CE013EA0C1F00F025804FF0000099
:104F6000F0BC81EA030101F00041BDE80081F0BC22
:104F7000BDE8004181EA030100F09EB9F0BCBDE844
:104F8000004170B500F04AF9097EFC3E00F007B818
:104F900081EA03014FF0000001F00041704781EA0F
:104FA000030100F089B9F0BCBDE800414FF00000FA
:104FB00021497047FFFDFBF9F7F5F4F2F0EEEDEB58
:104FC000E9E8E6E4E3E1E0DEDDDBDAD8D7D5D4D307
:104FD000D1D0CFCDCCCBCAC8C7C6C5C4C2C1C0BF53
:104FE000BEBDBCBBBAB9B8B7B6B5B4B3B2B1B0AF59
:104FF000AEADACABAAA9A8A8A7A6A5A4A3A3A2A13D
:10500000A09F9F9E9D9C9C9B9A99999897979695F7
:1050100095949393929191908F8F8E8E8D8C8C8B93
:105020008B8A89898888878786858584848383821B
:10503000828181800000FF070000F87F4FEA410372
:105040004FEA5353A3F58063D3F11E03C8BFD3F1D6
:10505000210C0CDD4FF0004242EAC12242EA5052DC
:1050600032FA03FC8CEAE17CACEBE1707047102B68
:10507000C4BF0020704703F5787CBCF1FF3F04D02B
:105080006FF0004282EA2100704770B500F0C6F868
:105090004992248000207047F2E710F0004248BF98
:1050A0004042B0FA80F310FA03F10AD0C3F11D03B5
:1050B00003F580634FEA415002EB035202EBD1212A
:1050C00070474FF000007047DFF848C170B51CEA28
:1050D000111E1EBF1CEA13159EEA0C0F95EA0C0F59
:1050E00000F06F8081EA030423EA4C134EEAD47E79
:1050F00021EA4C1141F4801143F48013AE44A1FB2A
:10510000024CA0FB0365AEF17F7E361955EB0C0512
:10511000A1FB034C4CF10003A0FB021C16EB0C0698
:10512000654153F10003094218BF46F0010613F42C
:10513000007F0BD14FEA03314FEA0530340341EAD7
:10514000155140EA16506FF003020AE04FEAC321FE
:105150004FEAC520F40241EA555140EA56506FF03B
:10516000020202EB2E4201EB025585EACE710AD013
:105170005FEA440C18BF24F0004450F1000041F1F4
:10518000000120EAD47040F2FE7C624500D270BD7E
:10519000A84214BF4FF080444FF04044002E08BF97
:1051A0000024BEF1806FA8BFA1F1C041BDE87040EE
:1051B00080F282804FF0000001F1C04101F0004117
:1051C00070479EEA0C0F0CEA131518BF95EA0C0FF6
:1051D00006D04FF0000081EA030E0EF0004170BDD2
:1051E00000F01CF88900013E00F007B800F009B893
:1051F0004FEA430C5FEA5C5C08D081EA030100F0EF
:105200005BB84FEA410C5FEA5C5CF6D14FF00000FE
:10521000014970470000FF070000F87F0EF1020E01
:105220002EF0030E5EF8046B364205D4012A43EBE0
:10523000030515F5001F12D8012841EB010C1CF5E0
:10524000001F0CD80ED14FEAD17C15F5001F0CEBD6
:105250004C0C0CF1020C08BF4CEBD37C04E04FF07B
:10526000080C01E04FEAD37C0CEB4C0526FA05F65E
:1052700006F00706B6F1040C06D20EEB860CBDE86C
:1052800070404CF0010C6047DFE80CF0090B0202A3
:105290004FF000414FF00000A1F5002170BD19460C
:1052A0001046012851EB010418BFD4F5001484BF47
:1052B000002001F0004170BD0808A0F500114FEA80
:1052C0003101704710B591EA030F48BF83F00043E6
:1052D0003FF5BCAC841A71EB030C07D212198CF0A9
:1052E000004C43EB0C03001B61EB0C01DFF8A4E165
:1052F0004FEA1154A4EB135C1EEA430F18BF9EEA59
:10530000445F00F0B08023EA6E03524221EA045168
:10531000C3EB6E0338BF5B1EDCF1200E25D322FAEF
:105320000CFE10EB0E0043FA0CFE41EB0E01CCF12B
:10533000200E03FA0EFE10EB0E0051F10001CCF12D
:10534000200E29D412FA0EF201EB0451BDE81040F0
:1053500058BF7047401C1CBFB2F1004F7047002877
:105360000CBF491C20F00100704712EB020E43EB0A
:10537000030218BF4FF0010E4EEA4202ACF1200CBE
:10538000DCF11E0E54D943FA0CFE10EB0E0051F165
:10539000FF31CCF11E0ED5D50EF1010E12FA0EFE24
:1053A000404141EB010101EB445C5FEA5C5C10D9D8
:1053B00010EBDE7001EB045138BFBEF1004FBDE8C9
:1053C000104018BF704700280CBF491C20F0010096
:1053D000704730D24FEAD42C11F5001124F4006448
:1053E0001BD0B1FA81F20B3AA41AA41ED2F1200309
:1053F000914030FA03F31943904001EBCC71002C3B
:1054000001EB0451BDE81040A8BF704701F1C04155
:105410004FF0000001F000417047B0FA80F310FA3D
:1054200003F100D110BDE41A173C4805C90AE4E7AE
:1054300001EB045110BD491001EB0451BDE81040CF
:105440004FEA300002E04FF0000170474A0008BF09
:105450000042F8D0B2F5001F28BF704701F00041AC
:105460004FF0000070479EEA445F07D011EA5E0FDC
:10547000BDE8104004BF002100207047BDE8104087
:1054800070B5FFF7CBFE00BF40DFF63E83F0004172
:10549000104670470000E0FF43004FEAD30C4FEA8C
:1054A0003C0C43401FBF40070CF1605113F0FE4F0E
:1054B00070471CF0006F03D100200CF000417047D2
:1054C0000CF0004343EA507010B540EACC0000F005
:1054D00026F900BF000000924FEA0001FFF7ECBE82
:1054E0004FF000414FF00000A1F50021704700008F
:1054F00090EA010F48BF81F0004100F16281421A39
:105500003CBF801A89184FEAD0524FF07F4C1CEAFA
:10551000410FA2EBD15318BF9CEA026F00F03B8011
:105520004FF0004C4CEA00204CEA012121FA03FC28
:1055300010EB0C0C1ED202F1FF325FEA1C2040EB94
:10554000C25038BF70471CF07F0F4FEA400C18BFA5
:10555000BCF17F4F38BF7047C3F12003994008BFAB
:1055600020F00100BCF17F4F38BF7047A0F1C04070
:1055700000F01BB94FEA3C00000A40EBC25028BFC4
:105580001CF0FF0F4FEA400CE6D018BFBCF17F4F74
:1055900038BF7047EAE79CEA026F05D010EA5C0F5B
:1055A00008BF00F00040704710B500F0B8F800BF29
:1055B00064FBBE3E41000B0ED3F19E0208D950F4AD
:1055C00000034FEA032323FA02F048BF404270472A
:1055D00010B500F0A4F800BF499224800020704765
:1055E0006FF0004282EA20007047000010F0004196
:1055F00048BF4042B0FA80F310FA03F2C3F19D03B2
:105600000BD051EAC35101EB1220530638BF70474B
:1056100000F1010008BF20F0010070474FF47F0C3B
:105620001CEAD0121EBF1CEAD11392EA0C0F93EAB7
:105630000C0F00F0478090EA010F48BF42F48072DF
:105640004FF0004C4CEA00204CEA012102EB03022F
:10565000A0FB0113A2F50002002918BF43F00103CB
:105660005B0028BF4FEA330342EB22425FEA132C70
:105670004CEBC2502EBFBCEB436FB2F57C0F7047B2
:105680004FEA036CBCF1004F08BF20F00100B2F5F7
:105690007C0F38BF70470BD582F0FF0212F5803FB8
:1056A000C8BF704700F1C040D8BF00F0004070474D
:1056B00000F5000C5FEA4C0C48BF7047B0F1C040E9
:1056C00000F073B890EA010F0CEAD11348BF42F41E
:1056D0008072624538BF634504D280EA010000F061
:1056E0000040704710B500F01AF800BF8900013E75
:1056F00000F007B800F009B85FEA410C5FEA1C6CE3
:1057000008D080EA010000F050B85FEA400C5FEA80
:105710001C6CF6D14FF00040A0F5800070470EF1F0
:10572000020E2EF0030E5EF8044B244204D44FEA1E
:105730004102B2F17F4F11D84FEA4003B3F17F4FDE
:105740000CD80ED14FEAD07CB2F17F4F0CEB4C0C51
:105750000CF1020C08BF4CEBD17C04E04FF0080CBC
:1057600001E04FEAD17C0CEB4C0324FA03F404F083
:105770000704B4F1040C06D20EEB840CBDE8104013
:105780004CF0010C6047DFE80CF0070802024FF014
:105790000040A0F5800010BD0846420018BFD2F1BD
:1057A000807288BF00F0004010BDFF2141EAD05058
:1057B000C005704790EA010F48BF81F000413FF5F6
:1057C0009EAE421A04D882F00042A0EB02001144BF
:1057D0004FEAD0524FF07F4C1CEA410FA2EBD1535D
:1057E00018BF9CEA026F4AD04FF0004C4CEA0020F0
:1057F0004CEA012121FA03FCB0EB0C0C0FD412F09F
:10580000FE0F36D05FEA4C001DD5001240EBC250AF
:1058100038BF70471CF03F0F18BF70470BE0A2F174
:1058200001025FEA1C2040EBC25038BF70471CF0F9
:105830007F0F18BF7047C3F12003994014BF401E6B
:1058400020F00100704780084FEA122308BF70471C
:10585000B0FA80FCA2EB0C02CCF1280C60FA0CF040
:1058600093EA122F04BF00EBC25070474FEAC37097
:105870007047130A5FEADC1008BF7047F6E79CEA3E
:10588000026F04D010EA5C0F08BF0020704710B50B
:10589000FFF745FF40DFF63E81F000407047010210
:1058A00002030405060708090A0B0C0D0E0F101061
:1058B00000000000000000000102030406070809C0
:1058C0000000000001020304E85800080000002066
:1058D000E801000028010008C0590008E801002084
:1058E000E019000084010008012C300ECEB42B40DA
:1058F000460147429E5994416405249CFFFFFF13D3
:10590000DD3714080D381B0819041A41041A6D04F8
:105910001ABD141AE904170403090412011402023F
:1059200002164083044057260201020301031A1A9B
:1059300003130D041B0809041A05041A3104192F56
:105940001182105324F4130A0632022A401C1C0947
:10595000024357111BC03235111B01020B130524E2
:105960001610010524011009010424020205240671
:10597000170107058203081C1009048D320A1D0750
:10598000050102432C070581070938442A40072AEC
:105990008107112B0907440A3B044413813514087D
:1059A000E9341408693642081A2D101A75101ABB0A
:1059B00004C11A69182A5D1C19041A510400000058
:04000005080000ED02
:00000001FF
